:1000000000308A00C62800002F08A5002E08A40092
:100010002D08A3002C08A2008A110A12F728F80163
:10002000F901F701FA013108031D192830080319F5
:1000300033281030B2000310AE0DAF0DF70DFA0DDE
:1000400031087A02031D262830087702031C2F2866
:100050003008F702031CFA033108FA020314F80D02
:10006000F90DB20B1B2808002508AE002408AD00CE
:100070002308AC002208AB004130B200C630B1000A
:100080004E30B0006D30AF002030B700B301B40186
:10009000B501B6012E08FA002D08F9002C08F80069
:1000A0002B08F7000310771C63282F08B3073008CC
:1000B0000318300FB40731080318310FB5073208A1
:1000C0000318320FB607B60CB50CB40CB30CFA0C0F
:1000D000F90CF80CF70CB70B522839307707A2004F
:1000E0007808A300303003183130A3077908A40042
:1000F000003003180130A4077A08A5000030031867
:100100000130A5072408F7002508F800F901FA01D5
:100110002508AD002408AC002508AF002408AE0077
:100120007F30B100FF30B0000F207708F8007A0868
:10013000F9008A110A12FE281030AF00F701FA0107
:10014000AC0CAB0C031CAA282D08F7070318FA0AFD
:100150002E08FA07FA0CF70CF90CF80CAF0BA028D4
:1001600008002E308400831300080319C5280130CD
:10017000F800F701F70BBA28F80BB9284A30F70056
:10018000F70BC028C328800BB728080083161F145C
:100190009F141F159F118312A7013830A6003C3011
:1001A000B800BA01A030B9004D308316A00001306C
:1001B000A2001030A1005D308312031790000130BF
:1001C0009200903091005D30831690009201910171
:1001D0008312031383131F308305A001A1010108BB
:1001E000AB00AF01AE01AD012B08AC000428A801A3
:1001F0000130AA00A808031DE72A34287908AC00BA
:100200007808AB007908AF007808AE00B1010D3076
:10021000B0000F207708A900AC012A08AB0003301A
:10022000AE00E830AD009C207908AC007808AB0047
:100230007908AD00AD0AAD0303192229FF30AE00E5
:10024000B1201B292B08AE00B1202908F33E03186A
:10025000E42A0D3EA52E8316061383120617AC0161
:100260002A08AB000330AE00E830AD009C207908CE
:10027000AC007808AB007908AD00AD0AAD030319F6
:100280004529FF30AE00B1203E292B08AE00B12039
:100290008316061383120613E42A8316861283122A
:1002A0008616AC012A08AB000330AE00E830AD0082
:1002B0009C207908AC007808AB007908AD00AD0A45
:1002C000AD0303196729FF30AE00B12060292B0868
:1002D000AE00B1208316861283128612E42A83169A
:1002E000061283120616AC012A08AB000330AE00DA
:1002F000E830AD009C207908AC007808AB007908A4
:10030000AD00AD0AAD0303198929FF30AE00B1205D
:1003100082292B08AE00B120831606128312061222
:10032000E42A8316861183128615AC012A08AB00D5
:100330000330AE00E830AD009C207908AC007808AE
:10034000AB007908AD00AD0AAD030319AB29FF304E
:10035000AE00B120A4292B08AE00B120831686116F
:1003600083128611E42A8316061183120615AC0146
:100370002A08AB000330AE00E830AD009C207908BD
:10038000AC007808AB007908AD00AD0AAD030319E5
:10039000CD29FF30AE00B120C6292B08AE00B12018
:1003A0008316061183120611E42A8316861083121F
:1003B0008614AC012A08AB000330AE00E830AD0073
:1003C0009C207908AC007808AB007908AD00AD0A34
:1003D000AD030319EF29FF30AE00B120E8292B0847
:1003E000AE00B1208316861083128610E42A83168D
:1003F000061083120614AC012A08AB000330AE00CD
:10040000E830AD009C207908AC007808AB00790892
:10041000AD00AD0AAD030319112AFF30AE00B120C3
:100420000A2A2B08AE00B12083160610831206108C
:10043000E42A8316851283128516AC012A08AB00C4
:100440000330AE00E830AD009C207908AC0078089D
:10045000AB007908AD00AD0AAD030319332AFF30B4
:10046000AE00B1202C2A2B08AE00B12083168512D5
:1004700083128512E42A8316051283120516AC0135
:100480002A08AB000330AE00E830AD009C207908AC
:10049000AC007808AB007908AD00AD0AAD030319D4
:1004A000552AFF30AE00B1204E2A2B08AE00B120F5
:1004B0008316051283120512E42A8316851183120E
:1004C0008515AC012A08AB000330AE00E830AD0062
:1004D0009C207908AC007808AB007908AD00AD0A23
:1004E000AD030319772AFF30AE00B120702A2B0824
:1004F000AE00B1208316851183128511E42A83167C
:10050000051183120515AC012A08AB000330AE00BB
:10051000E830AD009C207908AC007808AB00790881
:10052000AD00AD0AAD030319992AFF30AE00B1202A
:10053000922A2B08AE00B1208316051183120511F3
:10054000E42A8316851083128514AC012A08AB00B7
:100550000330AE00E830AD009C207908AC0078088C
:10056000AB007908AD00AD0AAD030319BB2AFF301B
:10057000AE00B120B42A2B08AE00B120831685103E
:1005800083128510E42A8316051083120514AC012A
:100590002A08AB000330AE00E830AD009C2079089B
:1005A000AC007808AB007908AD00AD0AAD030319C3
:1005B000DD2AFF30AE00B120D62A2B08AE00B120D4
:1005C00083160510831205100130A800A32E280BF6
:1005D000A32E071A032B8719032B0719032B871840
:1005E000032B0718032B881B032B081B032B881ACC
:1005F000032B081A032B8819032B0819032B8818BF
:10060000032B081CA32E2908F33E0318A32E0D3E2E
:10061000B62E071E2E2B8316891083128914AC0167
:100620002A08AB000330AE00E830AD009C2079080A
:10063000AC007808AB007908AD00AD0AAD03031932
:10064000252BFF30AE00B1201E2B2B08AE00B120B1
:100650008316891083128910A8014F2B8316091065
:1006600083120914AC012A08AB000330AE00E83055
:10067000AD009C207908AC007808AB007908AD008B
:10068000AD0AAD030319482BFF30AE00B120412B5A
:100690002B08AE00B1208316091083120910A32E77
:1006A000871D752B8316891083128914AC012A08C3
:1006B000AB000330AE00E830AD009C207908AC0000
:1006C0007808AB007908AD00AD0AAD0303196C2BB7
:1006D000FF30AE00B120652B2B08AE00B120831691
:1006E000891083128910A801962B83160910831292
:1006F0000914AC012A08AB000330AE00E830AD00AD
:100700009C207908AC007808AB007908AD00AD0AF0
:10071000AD0303198F2BFF30AE00B120882B2B08BF
:10072000AE00B1208316091083120910A32E071DF5
:10073000BC2B8316891083128914AC012A08AB00E4
:100740000330AE00E830AD009C207908AC0078089A
:10075000AB007908AD00AD0AAD030319B32BFF3030
:10076000AE00B120AC2B2B08AE00B120831689104F
:1007700083128910A801DD2B831609108312091436
:10078000AC012A08AB000330AE00E830AD009C207D
:100790007908AC007808AB007908AD00AD0AAD036C
:1007A0000319D62BFF30AE00B120CF2B2B08AE00A3
:1007B000B1208316091083120910A32E871C032C65
:1007C0008316891083128914AC012A08AB00033008
:1007D000AE00E830AD009C207908AC007808AB0092
:1007E0007908AD00AD0AAD030319FA2BFF30AE0056
:1007F000B120F32B2B08AE00B12083168910831291
:100800008910A801242C8316091083120914AC0145
:100810002A08AB000330AE00E830AD009C20790818
:10082000AC007808AB007908AD00AD0AAD03031940
:100830001D2CFF30AE00B120162C2B08AE00B120CD
:100840008316091083120910A32E071C4A2C831645
:10085000891083128914AC012A08AB000330AE0062
:10086000E830AD009C207908AC007808AB0079082E
:10087000AD00AD0AAD030319412CFF30AE00B1202D
:100880003A2C2B08AE00B1208316891083128910F0
:10089000A8016B2C8316091083120914AC012A08D5
:1008A000AB000330AE00E830AD009C207908AC000E
:1008B0007808AB007908AD00AD0AAD030319642CCC
:1008C000FF30AE00B1205D2C2B08AE00B1208316A6
:1008D000091083120910A32E881F912C83168910EA
:1008E00083128914AC012A08AB000330AE00E83053
:1008F000AD009C207908AC007808AB007908AD0009
:10090000AD0AAD030319882CFF30AE00B120812C55
:100910002B08AE00B1208316891083128910A8011C
:10092000B22C8316091083120914AC012A08AB00FB
:100930000330AE00E830AD009C207908AC007808A8
:10094000AB007908AD00AD0AAD030319AB2CFF3045
:10095000AE00B120A42C2B08AE00B12083160910E4
:1009600083120910A32E081FD82C83168910831216
:100970008914AC012A08AB000330AE00E830AD00AA
:100980009C207908AC007808AB007908AD00AD0A6E
:10099000AD030319CF2CFF30AE00B120C82C2B08BB
:1009A000AE00B1208316891083128910A801F92C9A
:1009B0008316091083120914AC012A08AB00033016
:1009C000AE00E830AD009C207908AC007808AB00A0
:1009D0007908AD00AD0AAD030319F22CFF30AE006B
:1009E000B120EB2C2B08AE00B12083160910831226
:1009F0000910A32E881E1F2D8316891083128914B7
:100A0000AC012A08AB000330AE00E830AD009C20FA
:100A10007908AC007808AB007908AD00AD0AAD03E9
:100A20000319162DFF30AE00B1200F2D2B08AE009C
:100A3000B1208316891083128910A801402D8316D6
:100A4000091083120914AC012A08AB000330AE0070
:100A5000E830AD009C207908AC007808AB0079083C
:100A6000AD00AD0AAD030319392DFF30AE00B12042
:100A7000322D2B08AE00B120831609108312091005
:100A8000A32E081E662D8316891083128914AC01CB
:100A90002A08AB000330AE00E830AD009C20790896
:100AA000AC007808AB007908AD00AD0AAD030319BE
:100AB0005D2DFF30AE00B120562D2B08AE00B120C9
:100AC0008316891083128910A801872D83160910B7
:100AD00083120914AC012A08AB000330AE00E830E1
:100AE000AD009C207908AC007808AB007908AD0017
:100AF000AD0AAD030319802DFF30AE00B120792D72
:100B00002B08AE00B1208316091083120910A32E02
:100B1000881DAD2D8316891083128914AC012A0813
:100B2000AB000330AE00E830AD009C207908AC008B
:100B30007808AB007908AD00AD0AAD030319A42D08
:100B4000FF30AE00B1209D2D2B08AE00B1208316E2
:100B5000891083128910A801CE2D831609108312E3
:100B60000914AC012A08AB000330AE00E830AD0038
:100B70009C207908AC007808AB007908AD00AD0A7C
:100B8000AD030319C72DFF30AE00B120C02D2B08D7
:100B9000AE00B1208316091083120910A32E081D80
:100BA000F42D8316891083128914AC012A08AB0036
:100BB0000330AE00E830AD009C207908AC00780826
:100BC000AB007908AD00AD0AAD030319EB2DFF3082
:100BD000AE00B120E42D2B08AE00B12083168910A1
:100BE00083128910A801152E831609108312091487
:100BF000AC012A08AB000330AE00E830AD009C2009
:100C00007908AC007808AB007908AD00AD0AAD03F7
:100C100003190E2EFF30AE00B120072E2B08AE00B8
:100C2000B1208316091083120910A32E881C3B2EB5
:100C30008316891083128914AC012A08AB00033093
:100C4000AE00E830AD009C207908AC007808AB001D
:100C50007908AD00AD0AAD030319322EFF30AE00A6
:100C6000B1202B2E2B08AE00B120831689108312E1
:100C70008910A8015C2E8316091083120914AC0197
:100C80002A08AB000330AE00E830AD009C207908A4
:100C9000AC007808AB007908AD00AD0AAD030319CC
:100CA000552EFF30AE00B1204E2E2B08AE00B120E5
:100CB0008316091083120910A32E081C822E831696
:100CC000891083128914AC012A08AB000330AE00EE
:100CD000E830AD009C207908AC007808AB007908BA
:100CE000AD00AD0AAD030319792EFF30AE00B1207F
:100CF000722E2B08AE00B120831689108312891042
:100D0000A801A32E8316091083120914AC012A0826
:100D1000AB000330AE00E830AD009C207908AC0099
:100D20007808AB007908AD00AD0AAD0303199C2E1D
:100D3000FF30AE00B120952E2B08AE00B1208316F7
:100D4000091083120910FA2863000A108A140A1580
:100D500082072B294D296F299129B329D529F729F4
:100D6000192A3B2A5D2A7F2AA12AC32A0A108A143B
:100D70000A158207092B502B972BDE2B252C6C2C68
:0E0D8000B32CFA2C412D882DCF2D162E5D2E72
:02400E00313F40
:00000001FF
;PIC16F877
;CRC=02E2  CREATED="12-May-15 23:49"
